:020000040800F2
:1000000000500020610E0008FD0D0008050E0008DC
:100010000D0E0008150E00081D0E0008000000005F
:10002000000000000000000000000000250E000895
:10003000310E0008000000003D0E0008490E0008C7
:10004000A90E0008A90E0008A90E0008A90E0008B4
:10005000A90E0008A90E0008A90E0008A90E0008A4
:10006000A90E0008A90E0008A90E0008A90E000894
:10007000A90E0008A90E0008A90E0008A90E000884
:10008000A90E0008A90E0008A90E0008A90E000874
:10009000A90E0008A90E0008A90E0008A90E000864
:1000A000A90E0008A90E0008A90E0008A90E000854
:1000B000A90E0008A90E0008A90E0008A90E000844
:1000C000A90E0008A90E0008A90E0008A90E000834
:1000D000A90E0008A90E0008A90E0008A90E000824
:1000E000A90E0008A90E0008A90E000800000000D3
:1000F0000000000000000000000000000000000000
:0C01000000000000000000005FF808F1A3
:1001100010B5054C237833B9044B13B10448AFF341
:1001200000800123237010BD0C000020000000009F
:100130007822000808B5034B1BB103490348AFF30D
:10014000008008BD00000000100000207822000898
:1001500081F0004102E000BF83F0004330B54FEA78
:1001600041044FEA430594EA050F08BF90EA020FE5
:100170001FBF54EA000C55EA020C7FEA645C7FEA78
:10018000655C00F0E2804FEA5454D4EB5555B8BF9B
:100190006D420CDD2C4480EA020281EA030382EA0C
:1001A000000083EA010180EA020281EA0303362D9E
:1001B00088BF30BD11F0004F4FEA01314FF4801C71
:1001C0004CEA113102D0404261EB410113F0004F83
:1001D0004FEA03334CEA133302D0524263EB43033A
:1001E00094EA050F00F0A780A4F10104D5F1200ED8
:1001F0000DDB02FA0EFC22FA05F2801841F1000133
:1002000003FA0EF2801843FA05F359410EE0A5F106
:1002100020050EF1200E012A03FA0EFC28BF4CF037
:10022000020C43FA05F3C01851EBE37101F00045ED
:1002300007D54FF0000EDCF1000C7EEB00006EEBFA
:100240000101B1F5801F1BD3B1F5001F0CD3490884
:100250005FEA30004FEA3C0C04F101044FEA4452DB
:1002600012F5800F80F09A80BCF1004F08BF5FEA62
:10027000500C50F1000041EB045141EA050130BD42
:100280005FEA4C0C404141EB0101013C28BFB1F554
:10029000801FE9D291F0000F04BF01460020B1FA9F
:1002A00081F308BF2033A3F10B03B3F120020CDA72
:1002B0000C3208DD02F1140CC2F10C0201FA0CF050
:1002C00021FA02F10CE002F11402D8BFC2F1200CB5
:1002D00001FA02F120FA0CFCDCBF41EA0C0190406B
:1002E000E41AA2BF01EB0451294330BD6FEA0404B4
:1002F0001F3C1CDA0C340EDC04F11404C4F120029F
:1003000020FA04F001FA02F340EA030021FA04F3B0
:1003100045EA030130BDC4F10C04C4F1200220FA07
:1003200002F001FA04F340EA0300294630BD21FA45
:1003300004F0294630BD94F0000F83F4801306BF0B
:1003400081F480110134013D4EE77FEA645C18BFFF
:100350007FEA655C29D094EA050F08BF90EA020F96
:1003600005D054EA000C04BF1946104630BD91EA8E
:10037000030F1EBF0021002030BD5FEA545C05D191
:100380004000494128BF41F0004130BD14F58004D0
:100390003CBF01F5801130BD01F0004545F0FE4144
:1003A00041F470014FF0000030BD7FEA645C1ABF79
:1003B000194610467FEA655C1CBF0B46024650EAB0
:1003C000013406BF52EA033591EA030F41F40021DC
:1003D00030BD00BF90F0000F04BF0021704730B562
:1003E0004FF4806404F132044FF000054FF0000137
:1003F00050E700BF90F0000F04BF0021704730B5F8
:100400004FF4806404F1320410F0004548BF4042CC
:100410004FF000013EE700BF42004FEAE2014FEA21
:1004200031014FEA02701FBF12F07F4393F07F4FFC
:1004300081F06051704732F07F4208BF704793F0FF
:100440007F4F04BF41F40021704730B54FF4607412
:1004500001F0004521F000411CE700BF50EA010215
:1004600008BF704730B54FF000050AE050EA0102BE
:1004700008BF704730B511F0004502D5404261EB2E
:1004800041014FF4806404F132045FEA915C3FF46F
:10049000D8AE4FF003025FEADC0C18BF03325FEA0C
:1004A000DC0C18BF033202EBDC02C2F1200300FABD
:1004B00003FC20FA02F001FA03FE40EA0E0021FAE2
:1004C00002F11444BDE600BF70B54FF0FF0C4CF4D0
:1004D000E06C1CEA11541DBF1CEA135594EA0C0F82
:1004E00095EA0C0F00F0DEF82C4481EA030621EABD
:1004F0004C5123EA4C5350EA013518BF52EA0335F8
:1005000041F4801143F4801338D0A0FB02CE4FF0A9
:100510000005E1FB02E506F00042E0FB03E54FF0D9
:100520000006E1FB03569CF0000F18BF4EF0010ED1
:10053000A4F1FF04B6F5007F64F5407404D25FEACD
:100540004E0E6D4146EB060642EAC62141EA555180
:100550004FEAC52040EA5E504FEACE2EB4F1FD0CC2
:1005600088BFBCF5E06F1ED8BEF1004F08BF5FEA40
:10057000500E50F1000041EB045170BD06F00046F2
:1005800046EA010140EA020081EA0301B4EB5C049F
:10059000C2BFD4EB0C0541EA045170BD41F4801197
:1005A0004FF0000E013C00F3AB8014F1360FDEBFBC
:1005B000002001F0004170BDC4F10004203C35DA98
:1005C0000C341BDC04F11404C4F1200500FA05F31B
:1005D00020FA04F001FA05F240EA020001F00042BC
:1005E00021F0004110EBD37021FA04F642EB060132
:1005F0005EEA430E08BF20EAD37070BDC4F10C045C
:10060000C4F1200500FA04F320FA05F001FA04F21F
:1006100040EA020001F0004110EBD37041F100010B
:100620005EEA430E08BF20EAD37070BDC4F1200516
:1006300000FA05F24EEA020E20FA04F301FA05F27E
:1006400043EA020321FA04F001F0004121FA04F226
:1006500020EA020000EBD3705EEA430E08BF20EAF6
:10066000D37070BD94F0000F0FD101F00046400030
:1006700041EB010111F4801F08BF013CF7D041EAB2
:10068000060195F0000F18BF704703F000465200B6
:1006900043EB030313F4801F08BF013DF7D043EA87
:1006A0000603704794EA0C0F0CEA135518BF95EA3D
:1006B0000C0F0CD050EA410618BF52EA4306D1D1C4
:1006C00081EA030101F000414FF0000070BD50EAE3
:1006D000410606BF1046194652EA430619D094EA6D
:1006E0000C0F02D150EA013613D195EA0C0F05D157
:1006F00052EA03361CBF104619460AD181EA0301AB
:1007000001F0004141F0FE4141F470014FF0000062
:1007100070BD41F0FE4141F4780170BD70B54FF0FD
:10072000FF0C4CF4E06C1CEA11541DBF1CEA13557D
:1007300094EA0C0F95EA0C0F00F0A7F8A4EB05045F
:1007400081EA030E52EA03354FEA013100F0888056
:100750004FEA03334FF0805545EA131343EA12631F
:100760004FEA022245EA111545EA10654FEA0026D4
:100770000EF000419D4208BF964244F1FD0404F58D
:10078000407402D25B084FEA3202B61A65EB0305E9
:100790005B084FEA32024FF480104FF4002CB6EBA6
:1007A000020E75EB030E22BFB61A754640EA0C0026
:1007B0005B084FEA3202B6EB020E75EB030E22BF66
:1007C000B61A754640EA5C005B084FEA3202B6EBA7
:1007D000020E75EB030E22BFB61A754640EA9C0066
:1007E0005B084FEA3202B6EB020E75EB030E22BF36
:1007F000B61A754640EADC0055EA060E18D04FEAF4
:10080000051545EA16754FEA06164FEAC30343EA93
:1008100052734FEAC2025FEA1C1CC0D111F4801F60
:100820000BD141EA00014FF000004FF0004CB6E759
:1008300011F4801F04BF01430020B4F1FD0C88BFF8
:10084000BCF5E06F3FF6AFAEB5EB030C04BFB6EB03
:10085000020C5FEA500C50F1000041EB045170BDF6
:100860000EF0004E4EEA113114EB5C04C2BFD4EB23
:100870000C0541EA045170BD41F480114FF0000EA7
:10088000013C90E645EA060E8DE60CEA135594EA23
:100890000C0F08BF95EA0C0F3FF43BAF94EA0C0F26
:1008A0000AD150EA01347FF434AF95EA0C0F7FF49B
:1008B00025AF104619462CE795EA0C0F06D152EAEF
:1008C00003353FF4FDAE1046194622E750EA4106D3
:1008D00018BF52EA43067FF4C5AE50EA41047FF4E4
:1008E0000DAF52EA43057FF4EBAE12E74A0011D296
:1008F00012F5001211D20DD56FF47873B3EB62527A
:100900000ED44FEAC12343F0004343EA505323FA85
:1009100002F070474FF00000704750EA013002D1FA
:100920004FF0FF3070474FF00000704780B400AFC9
:10093000144BDB68134A23F08073D360114BDB68E0
:10094000104A43F08073D3600F4B1B680E4A23F0AC
:10095000010313600C4B1B680B4A43F00103136047
:10096000094B00225A6000BF00BF00BF064B5B6806
:10097000002B01D0002300E001231846BD4680BCB7
:10098000704700BFF0ED00E0001000E080B584B0DB
:1009900000AF78600D4B5B68FB6001F019FC03460B
:1009A0000B4AA2FB03239B0C7A6802FB03F37B60D8
:1009B00000BF064B5A68FB68D21A7B689A42F8D38C
:1009C00000BF00BF1037BD4680BD00BF001000E073
:1009D00083DE1B4380B582B000AF00237B60012221
:1009E0000121134801F01BF80A20FFF7CFFF002276
:1009F00001210F4801F013F800BF02210C4800F05C
:100A0000F7FF0346002BF8D005E07B6801337B60DD
:100A10000120FFF7BBFF0221054800F0E9FF034674
:100A2000002BF2D17B685B0018460837BD4680BDBD
:100A3000000801400000000080B500AF00F036FA69
:100A400000F072F800F0ECF800F0B4F8FFF76EFF79
:100A50002F4800F051FC2F4B01221A612D4B002230
:100A60009A602C4B0022DA602A4B4FF498721A607D
:100A7000294B01221A62284B00225A61264B002280
:100A80001A61254B00221A60234B00225A60224B28
:100A900000229A60204B0022DA601F4B00229A61EC
:100AA0001D4B0122DA611C49194800F05CFBFFF77D
:100AB00091FF0346194A1360184B1B681846FFF74D
:100AC00089FC11A3D3E90023FFF7FEFC02460B4685
:100AD000104619464FF000024FF08043FFF71EFE0C
:100AE00002460B4610461946FFF700FF03460C4A24
:100AF00013600C4B0A4A0749054800F041FC00BF4F
:100B0000D5E700BFAFF300809CC420B07268A13F5E
:100B1000280000205C000020780000205000002009
:100B2000540000207400002080B590B000AF07F1A1
:100B3000180328220021184601F072FB3B1D0022F9
:100B40001A605A609A60DA601A610123BB614FF43F
:100B50008033FB6100233B620123BB6202237B6382
:100B60004FF48033BB634FF4E013FB6307F11803CA
:100B7000184600F06DFF0346002B01D000F0A6F8E8
:100B80000F237B600223BB600023FB604FF4806374
:100B90003B6100237B613B1D0221184601F0DAF91D
:100BA0000346002B01D000F091F800BF4037BD464E
:100BB00080BD000080B500AF174B184A1A60164B75
:100BC00009225A60144B00229A60134B0022DA600B
:100BD000114B4FF410221A610F4B4FF480025A61EF
:100BE0000D4B00221A760C4B00225A760A4B00223B
:100BF0009A76094B0022DA76074B00221A77064BC9
:100C000000225A77044800F0B3F90346002B01D0C4
:100C100000F05CF800BF80BD2800002000640040A8
:100C200080B588B000AF07F1100300221A605A6047
:100C30009A60DA60234B9B69224A43F02003936158
:100C4000204B9B6903F02003FB60FB681D4B9B69F5
:100C50001C4A43F0040393611A4B9B6903F004039D
:100C6000BB60BB68174B9B69164A43F0080393614E
:100C7000144B9B6903F008037B607B6800221D21F5
:100C8000114800F0CCFE1D233B6101237B61002352
:100C9000BB610223FB6107F1100319460A4800F00B
:100CA00023FD02233B6100237B610023BB6107F12D
:100CB00010031946044800F017FD00BF2037BD4659
:100CC00080BD00BF001002400008014080B400AFAA
:100CD00072B600BF00BFFDE780B485B000AF154B12
:100CE0009B69144A43F001039361124B9B6903F023
:100CF0000103BB60BB680F4BDB690E4A43F08053B6
:100D0000D3610C4BDB6903F080537B607B680A4B3B
:100D10005B68FB60FB6823F0E063FB60FB6843F00B
:100D20000073FB60044AFB68536000BF1437BD4684
:100D300080BC7047001002400000014080B58AB0BE
:100D400000AF786007F1140300221A605A609A60BD
:100D5000DA607B681B68254A934243D1244BDB69E8
:100D6000234A43F00073D361214BDB6903F0007326
:100D70003B613B691E4B9B691D4A43F0080393612D
:100D80001B4B9B6903F00803FB60FB684FF4807307
:100D90007B610023BB610023FB6107F1140319464B
:100DA000144800F0A1FC4FF400737B610223BB6187
:100DB00003233B6207F1140319460E4800F094FC2C
:100DC0000D4B5B687B627B6A23F4C0437B627B6A6A
:100DD00043F0E0637B627B6A43F480437B62064AB4
:100DE0007B6A536000BF2837BD4680BD0064004069
:100DF00000100240000C01400000014080B400AF30
:100E000000BFFDE780B400AF00BFFDE780B400AFD6
:100E100000BFFDE780B400AF00BFFDE780B400AFC6
:100E200000BFFDE780B400AF00BFBD4680BC704787
:100E300080B400AF00BFBD4680BC704780B400AF37
:100E400000BFBD4680BC704780B500AF00F074F8AD
:100E500000BF80BD80B400AF00BFBD4680BC7047FE
:100E6000FFF7F8FF0B480C490C4A002302E0D45866
:100E7000C4500433C4188C42F9D3094A094C0023E6
:100E800001E013600432A242FBD301F0D1F9FFF775
:100E9000D3FD7047000000200C000020BC22000899
:100EA0000C000020A4000020FEE7000080B500AF89
:100EB000084B1B68074A43F010031360032000F03F
:100EC000DFFB0F2000F008F8FFF706FF00231846AD
:100ED00080BD00BF0020024080B582B000AF7860C6
:100EE000124B1A68124B1B7819464FF47A73B3FBF6
:100EF000F1F3B2FBF3F3184600F0E9FB0346002BD5
:100F000001D001230EE07B680F2B0AD800227968FC
:100F10004FF0FF3000F0BFFB064A7B6813600023F0
:100F200000E0012318460837BD4680BD00000020C0
:100F3000080000200400002080B400AF054B1B789F
:100F40001A46054B1B681344034A136000BFBD4695
:100F500080BC704708000020A000002080B400AFD3
:100F6000024B1B681846BD4680BC7047A00000209D
:100F700080B584B000AF78607B68002B01D101237D
:100F8000EDE07B6893F82030DBB2002B02D178686B
:100F9000FFF7D4FE7B681B681A687B681B6842F009
:100FA00001021A60FFF7DAFFF86012E0FFF7D6FFE0
:100FB0000246FB68D31A0A2B0BD97B685B6A43F4A1
:100FC00000327B685A627B68052283F82020012367
:100FD000C5E07B681B685B6803F00103002BE5D06C
:100FE0007B681B681A687B681B6822F002021A6023
:100FF000FFF7B4FFF86012E0FFF7B0FF0246FB68AE
:10100000D31A0A2B0BD97B685B6A43F400327B68E6
:101010005A627B68052283F8202001239FE07B68C9
:101020001B685B6803F00203002BE5D17B681B7E25
:10103000012B08D17B681B681A687B681B6842F02B
:1010400080021A6007E07B681B681A687B681B686F
:1010500022F080021A607B685B7E012B08D17B68DE
:101060001B681A687B681B6842F040021A6007E040
:101070007B681B681A687B681B6822F040021A6054
:101080007B689B7E012B08D17B681B681A687B6894
:101090001B6842F020021A6007E07B681B681A6830
:1010A0007B681B6822F020021A607B68DB7E012BC4
:1010B00008D17B681B681A687B681B6822F01002E5
:1010C0001A6007E07B681B681A687B681B6842F03F
:1010D00010021A607B681B7F012B08D17B681B689C
:1010E0001A687B681B6842F008021A6007E07B6898
:1010F0001B681A687B681B6822F008021A607B680C
:101100005B7F012B08D17B681B681A687B681B68B2
:1011100042F004021A6007E07B681B681A687B686B
:101120001B6822F004021A607B689A687B68DB689F
:101130001A437B681B691A437B685B6942EA0301B7
:101140007B685B685A1E7B681B680A43DA617B68B0
:1011500000225A627B68012283F82020002318466F
:101160001037BD4680BD80B487B000AF786039606D
:101170007B681B687B617B6893F82030FB74FB7C89
:10118000012B03D0FB7C022B40F0AA807B69D3F8B3
:10119000003243F001027B69C3F800223B685B69BF
:1011A00003F01F03012202FA03F3FB607B69D3F80B
:1011B0001C22FB68DB431A407B69C3F81C223B6896
:1011C000DB69002B23D17B69D3F80C22FB68DB435E
:1011D0001A407B69C3F80C223B68DB6819043B6842
:1011E0005B689BB23A68526919437B69483243F89D
:1011F00032103B689B6819043B681B689AB23B68D5
:101200005B690A4379694833DB000B445A603B68E9
:10121000DB69012B22D17B69D3F80C22FB681A43CE
:101220007B69C3F80C223B681B6819043B685B6848
:101230009BB23A68526919437B69483243F83210CD
:101240003B689B6819043B68DB689AB23B685B6942
:101250000A4379694833DB000B445A603B689B6959
:10126000002B09D17B69D3F80422FB68DB431A40C9
:101270007B69C3F8042207E07B69D3F80422FB688A
:101280001A437B69C3F804223B681B69002B09D110
:101290007B69D3F81422FB68DB431A407B69C3F8EF
:1012A000142207E07B69D3F81422FB681A437B6998
:1012B000C3F814223B681B6A012B07D17B69D3F862
:1012C0001C22FB681A437B69C3F81C227B69D3F894
:1012D000003223F001027B69C3F80022002306E0FC
:1012E0007B685B6A43F480227B685A62012318465C
:1012F0001C37BD4680BC704780B584B000AF7860B5
:101300007B6893F82030DBB2012B2ED17B68022260
:1013100083F820207B681B681A687B681B6822F0B2
:1013200001021A60FFF71AFEF86012E0FFF716FEDE
:101330000246FB68D31A0A2B0BD97B685B6A43F41D
:1013400000327B685A627B68052283F820200123E3
:1013500012E07B681B685B6803F00103002BE5D19A
:101360007B6800225A62002306E07B685B6A43F4D4
:1013700000227B685A62012318461037BD4680BDA3
:1013800080B489B000AFF860B9607A603B60FB68F8
:1013900093F82030FB77FB681B689B68BB61FB7F81
:1013A000012B03D0FB7F022B40F0AD80BB6903F023
:1013B0008063002B0AD1BB6903F00063002B05D1C9
:1013C000BB6903F08053002B00F09580BB691B0EB6
:1013D00003F003037B6101227B699A403B681A603A
:1013E000BB689B68002B0DD1BB681B685A05BB68A6
:1013F000DB68F96809681A437B6918331B010B44E1
:101400001A600FE0BB685B68DA00BB689B681A4330
:10141000BB68DB68F96809681A437B6918331B01EC
:101420000B441A60FB681968BB681A697B6918333A
:101430001B010B4404331A60BB681B7D012B11D1C7
:10144000FB681A687B6918331B01134404331B685B
:10145000FA68116843F480727B6918331B010B44EE
:1014600004331A607B6807331B781A067B680633DF
:101470001B781B041A437B6805331B781B0213433C
:101480007A68043212781046FA68116843EA00025A
:101490007B691B010B4403F5C6731A607B68033339
:1014A0001B781A067B6802331B781B041A437B687F
:1014B00001331B781B0213437A6812781046FA68CE
:1014C000116843EA00027B691B010B4403F5C473F6
:1014D0001A60FB681A687B6918331B0113441B6888
:1014E000FA68116843F001027B6918331B010B4451
:1014F0001A6000230EE0FB685B6A43F40012FB688D
:101500005A62012306E0FB685B6A43F48022FB68B1
:101510005A62012318462437BD4680BC704700003C
:1015200080B485B000AF78607B6803F00703FB6090
:101530000C4BDB68BB60BA684FF6FF031340BB601F
:10154000FB681A02BB68134343F0BF6343F40033E4
:10155000BB60044ABB68D36000BF1437BD4680BC83
:10156000704700BF00ED00E080B400AF044BDB68C3
:101570001B0A03F007031846BD4680BC704700BF36
:1015800000ED00E080B483B000AF03463960FB712A
:1015900097F90730002B0ADB3B68DAB20C4997F960
:1015A00007301201D2B20B4483F800230AE03B68F3
:1015B000DAB20849FB7903F00F03043B1201D2B2FF
:1015C0000B441A7600BF0C37BD4680BC704700BF85
:1015D00000E100E000ED00E080B489B000AFF86009
:1015E000B9607A60FB6803F00703FB61FB69C3F134
:1015F0000703042B28BF0423BB61FB690433062BBC
:1016000002D9FB69033B00E000237B614FF0FF320E
:10161000BB6902FA03F3DA43BB681A407B699A405C
:101620004FF0FF317B6901FA03F3D9437B680B402C
:10163000134318462437BD4680BC704780B582B03E
:1016400000AF78607B68013BB3F1807F01D3012359
:101650000FE00A4A7B68013B53600F214FF0FF30D7
:10166000FFF790FF054B00229A60044B07221A6097
:10167000002318460837BD4680BD00BF10E000E0DB
:1016800080B582B000AF78607868FFF749FF00BF8F
:101690000837BD4680BD80B586B000AF0346B9604F
:1016A0007A60FB7300237B61FFF75EFF78617A68E5
:1016B000B9687869FFF790FF024697F90F30114635
:1016C0001846FFF75FFF00BF1837BD4680BD80B5E5
:1016D00082B000AF78607868FFF7B0FF0346184625
:1016E0000837BD4680BD000080B48BB000AF786085
:1016F000396000237B6200233B6269E101227B6A3F
:1017000002FA03F3FB613B681B68FA691340BB6193
:10171000BA69FB699A4240F058813B685B689A4A13
:1017200093425ED0984A934275D8984A934258D0D3
:10173000964A93426FD8964A934252D0944A934223
:1017400069D8944A93424CD0924A934263D8924AC1
:10175000934246D0904A93425DD8122B2AD8122B3E
:1017600059D801A252F823F0E3170008BD1700086A
:10177000CF170008111800081718000817180008DC
:10178000171800081718000817180008171800087D
:10179000171800081718000817180008171800086D
:1017A000171800081718000817180008C5170008B0
:1017B000D9170008794A934213D02CE03B68DB68C4
:1017C0003B6229E03B68DB6804333B6224E03B6812
:1017D000DB6808333B621FE03B68DB680C333B622D
:1017E0001AE03B689B68002B02D104233B6213E0A4
:1017F0003B689B68012B05D108233B627B68FA6933
:101800001A6109E008233B627B68FA695A6103E0C8
:1018100000233B6200E000BFBB69FF2B01D87B685F
:1018200001E07B6804337B61BB69FF2B02D87B6AD4
:101830009B0002E07B6A083B9B003B617B691A6866
:101840000F213B6901FA03F3DB431A40396A3B6914
:1018500001FA03F31A437B691A603B685B6803F083
:101860008053002B00F0B1804D4B9B694C4A43F0F4
:10187000010393614A4B9B6903F00103BB60BB68A2
:10188000484A7B6A9B08023352F82330FB607B6A2C
:1018900003F003039B000F2202FA03F3DB43FA6811
:1018A0001340FB607B68404A934213D07B683F4AF9
:1018B00093420DD07B683E4A934207D07B683D4AF5
:1018C000934201D1032306E0042304E0022302E053
:1018D000012300E000237A6A02F0030292009340A1
:1018E000FA681343FB602F497B6A9B080233FA684E
:1018F00041F823203B685B6803F48013002B06D07B
:101900002D4B9A682C49BB6913438B6006E02A4B28
:101910009A68BB69DB43284913408B603B685B686E
:1019200003F40013002B06D0234BDA682249BB696D
:101930001343CB6006E0204BDA68BB69DB431E49EA
:101940001340CB603B685B6803F40033002B06D088
:10195000194B5A681849BB6913434B6006E0164B94
:101960005A68BB69DB43144913404B603B685B68B2
:1019700003F48033002B21D00F4B1A680E49BB694A
:1019800013430B6021E000BF000032100000311053
:1019900000002210000021100000121000001110A1
:1019A000001002400000014000080140000C01400E
:1019B0000010014000140140000401400B4B1A6864
:1019C000BB69DB43094913400B607B6A01337B62CF
:1019D0003B681A687B6A22FA03F3002B7FF48EAE11
:1019E00000BF00BF2C37BD4680BC704700040140DB
:1019F00080B485B000AF78600B467B807B689A68C6
:101A00007B881340002B02D00123FB7301E00023ED
:101A1000FB73FB7B18461437BD4680BC704780B40F
:101A200083B000AF78600B467B8013467B707B7879
:101A3000002B03D07A887B681A6103E07B881A0444
:101A40007B681A6100BF0C37BD4680BC7047000040
:101A500080B586B000AF78607B68002B01D1012390
:101A600072E27B681B6803F00103002B00F08780A3
:101A7000924B5B6803F00C03042B0CD08F4B5B681C
:101A800003F00C03082B12D18C4B5B6803F48033FA
:101A9000B3F5803F0BD1894B1B6803F40033002B57
:101AA0006CD07B685B68002B68D101234CE27B68BB
:101AB0005B68B3F5803F06D1804B1B687F4A43F4D7
:101AC000803313602EE07B685B68002B0CD17B4B6E
:101AD0001B687A4A23F480331360784B1B68774A7B
:101AE00023F4802313601DE07B685B68B3F5A02FAF
:101AF0000CD1724B1B68714A43F4802313606F4B07
:101B00001B686E4A43F4803313600BE06B4B1B6819
:101B10006A4A23F480331360684B1B68674A23F4D6
:101B2000802313607B685B68002B13D0FFF716FAE5
:101B3000386108E0FFF712FA02463B69D31A642BBA
:101B400001D9032300E25D4B1B6803F40033002B33
:101B5000F0D014E0FFF702FA386108E0FFF7FEF971
:101B600002463B69D31A642B01D90323ECE1534BA2
:101B70001B6803F40033002BF0D100E000BF7B684A
:101B80001B6803F00203002B63D04C4B5B6803F02F
:101B90000C03002B0BD0494B5B6803F00C03082BA4
:101BA0001CD1464B5B6803F48033002B16D1434BAA
:101BB0001B6803F00203002B05D07B681B69012B17
:101BC00001D00123C0E13D4B1B6823F0F8027B6884
:101BD0005B69DB00394913430B603AE07B681B69A2
:101BE000002B20D0364B01221A60FFF7B7F938617D
:101BF00008E0FFF7B3F902463B69D31A022B01D97B
:101C00000323A1E12D4B1B6803F00203002BF0D04E
:101C10002A4B1B6823F0F8027B685B69DB002749CD
:101C200013430B6015E0264B00221A60FFF796F96C
:101C3000386108E0FFF792F902463B69D31A022B9C
:101C400001D9032380E11D4B1B6803F00203002B25
:101C5000F0D17B681B6803F00803002B3AD07B6847
:101C60009B69002B19D0174B01221A60FFF776F9F8
:101C7000386108E0FFF772F902463B69D31A022B7C
:101C800001D9032360E10D4B5B6A03F00203002BD3
:101C9000F0D0012000F0A6FA1CE00A4B00221A60E6
:101CA000FFF75CF938610FE0FFF758F902463B692E
:101CB000D31A022B08D9032346E100BF00100240CB
:101CC0000000424280044242924B5B6A03F00203EE
:101CD000002BE9D17B681B6803F00403002B00F0A4
:101CE000A6800023FB758B4BDB6903F08053002B30
:101CF0000DD1884BDB69874A43F08053D361854B14
:101D0000DB6903F08053BB60BB680123FB75824B2A
:101D10001B6803F48073002B18D17F4B1B687E4A2D
:101D200043F480731360FFF719F9386108E0FFF797
:101D300015F902463B69D31A642B01D9032303E149
:101D4000754B1B6803F48073002BF0D07B68DB6855
:101D5000012B06D16F4B1B6A6E4A43F001031362DD
:101D60002DE07B68DB68002B0CD16A4B1B6A694A4B
:101D700023F001031362674B1B6A664A23F00403D6
:101D800013621CE07B68DB68052B0CD1614B1B6A7E
:101D9000604A43F0040313625E4B1B6A5D4A43F0E2
:101DA000010313620BE05B4B1B6A5A4A23F00103E9
:101DB0001362584B1B6A574A23F0040313627B6873
:101DC000DB68002B15D0FFF7C9F838610AE0FFF790
:101DD000C5F802463B69D31A41F28832934201D9D1
:101DE0000323B1E04B4B1B6A03F00203002BEED040
:101DF00014E0FFF7B3F838610AE0FFF7AFF80246E6
:101E00003B69D31A41F28832934201D903239BE004
:101E1000404B1B6A03F00203002BEED1FB7D012B2C
:101E200005D13C4BDB693B4A23F08053D3617B688F
:101E3000DB69002B00F08780364B5B6803F00C03F6
:101E4000082B61D07B68DB69022B46D1334B002223
:101E50001A60FFF783F8386108E0FFF77FF8024661
:101E60003B69D31A022B01D903236DE0294B1B6870
:101E700003F00073002BF0D17B681B6AB3F5803F41
:101E800008D1244B5B6823F400327B689B682149AE
:101E900013434B601F4B5B6823F474127B68196A11
:101EA0007B685B6A0B431B4913434B601B4B01224E
:101EB0001A60FFF753F8386108E0FFF74FF8024661
:101EC0003B69D31A022B01D903233DE0114B1B6858
:101ED00003F00073002BF0D035E0104B00221A60A5
:101EE000FFF73CF8386108E0FFF738F802463B6935
:101EF000D31A022B01D9032326E0064B1B6803F0FB
:101F00000073002BF0D11EE07B68DB69012B07D149
:101F1000012319E0001002400070004060004242BE
:101F20000B4B5B68FB60FB6803F480327B681B6AC9
:101F30009A4206D1FB6803F470127B685B6A9A428E
:101F400001D0012300E0002318461837BD4680BDAC
:101F50000010024080B584B000AF786039607B68C3
:101F6000002B01D10123D0E06A4B1B6803F007036B
:101F70003A689A4210D9674B1B6823F007026549FB
:101F80003B6813430B60634B1B6803F007033A681D
:101F90009A4201D00123B8E07B681B6803F002037A
:101FA000002B20D07B681B6803F00403002B05D0B6
:101FB000594B5B68584A43F4E06353607B681B6885
:101FC00003F00803002B05D0534B5B68524A43F4DF
:101FD00060535360504B5B6823F0F0027B689B6852
:101FE0004D4913434B607B681B6803F00103002BD2
:101FF00040D07B685B68012B07D1474B1B6803F41B
:102000000033002B15D101237FE07B685B68022B36
:1020100007D1414B1B6803F00073002B09D101234A
:1020200073E03D4B1B6803F00203002B01D1012339
:102030006BE0394B5B6823F003027B685B683649D1
:1020400013434B60FEF78AFFF8600AE0FEF786FF55
:102050000246FB68D31A41F28832934201D9032326
:1020600053E02D4B5B6803F00C027B685B689B00C0
:102070009A42EBD1274B1B6803F007033A689A4258
:1020800010D2244B1B6823F0070222493B681343FC
:102090000B60204B1B6803F007033A689A4201D09B
:1020A000012332E07B681B6803F00403002B08D097
:1020B000194B5B6823F4E0627B68DB6816491343C5
:1020C0004B607B681B6803F00803002B09D0124BA0
:1020D0005B6823F460527B681B69DB000E49134385
:1020E0004B6000F021F802460B4B5B681B0903F0C4
:1020F0000F030A49CB5C22FA03F3094A1360094B28
:102100001B681846FEF7E8FE002318461037BD4648
:1021100080BD00BF00200240001002409022000855
:10212000000000200400002080B487B000AF00232E
:10213000FB600023BB6000237B6100237B600023E6
:102140003B611E4B5B68FB60FB6803F00C03042BD8
:1021500002D0082B03D027E0194B3B6127E0FB6836
:102160009B0C03F00F03174AD35C7B60FB6803F4FE
:102170008033002B10D0114B5B685B0C03F0010324
:10218000114AD35CBB607B680D4A03FB02F2BB685B
:10219000B2FBF3F37B6104E07B680C4A02FB03F3C0
:1021A0007B617B693B6102E0054B3B6100BF3B69A2
:1021B00018461C37BD4680BC704700BF0010024067
:1021C00000127A00A0220008B022000800093D0099
:1021D00080B400AF024B1B681846BD4680BC7047F8
:1021E0000000002080B485B000AF78600A4B1B6807
:1021F0000A4AA2FB03235B0A7A6802FB03F3FB6033
:1022000000BFFB685A1EFA60002BF9D100BF00BF67
:102210001437BD4680BC704700000020D34D6210CB
:1022200003460244934200D1704703F8011BF9E7CB
:1022300070B500260C4D0D4C641BA410A64209D1AC
:1022400000F01AF800260A4D0A4C641BA410A6429E
:1022500005D170BD55F8043B98470136EEE755F8B7
:10226000043B98470136F2E7B4220008B422000884
:10227000B4220008B8220008F8B500BFF8BC08BCBA
:102280009E467047F8B500BFF8BC08BC9E46704734
:102290000000000000000000010203040607080916
:1022A00002030405060708090A0B0C0D0E0F101097
:0422B0000102000027
:0422B40035010008E8
:0422B8001101000808
:0C22BC0000127A00100000000100000079
:0400000508000E6180
:00000001FF
